{
	"PriceConverter.sol": {
		"PriceConverter": {
			"abi": [
				{
					"inputs": [],
					"name": "checkDecimals",
					"outputs": [
						{
							"internalType": "uint8",
							"name": "",
							"type": "uint8"
						}
					],
					"stateMutability": "view",
					"type": "function"
				},
				{
					"inputs": [
						{
							"internalType": "uint256",
							"name": "ethAmount",
							"type": "uint256"
						}
					],
					"name": "convertToUsd",
					"outputs": [
						{
							"internalType": "uint256",
							"name": "",
							"type": "uint256"
						}
					],
					"stateMutability": "view",
					"type": "function"
				},
				{
					"inputs": [],
					"name": "getPrice",
					"outputs": [
						{
							"internalType": "uint256",
							"name": "",
							"type": "uint256"
						}
					],
					"stateMutability": "view",
					"type": "function"
				},
				{
					"inputs": [],
					"name": "showversion",
					"outputs": [
						{
							"internalType": "uint256",
							"name": "",
							"type": "uint256"
						}
					],
					"stateMutability": "view",
					"type": "function"
				}
			],
			"devdoc": {
				"kind": "dev",
				"methods": {},
				"version": 1
			},
			"evm": {
				"assembly": "    /* \"PriceConverter.sol\":185:1018  library PriceConverter {... */\n  dataSize(sub_0)\n  dataOffset(sub_0)\n  0x0b\n  dup3\n  dup3\n  dup3\n  codecopy\n  dup1\n  mload\n  0x00\n  byte\n  0x73\n  eq\n  tag_1\n  jumpi\n  mstore(0x00, 0x4e487b7100000000000000000000000000000000000000000000000000000000)\n  mstore(0x04, 0x00)\n  revert(0x00, 0x24)\ntag_1:\n  mstore(0x00, address)\n  0x73\n  dup2\n  mstore8\n  dup3\n  dup2\n  return\nstop\n\nsub_0: assembly {\n        /* \"PriceConverter.sol\":185:1018  library PriceConverter {... */\n      eq(address, deployTimeAddress())\n      mstore(0x40, 0x80)\n      jumpi(tag_1, lt(calldatasize, 0x04))\n      shr(0xe0, calldataload(0x00))\n      dup1\n      0x42495d01\n      eq\n      tag_2\n      jumpi\n      dup1\n      0x5781c552\n      eq\n      tag_3\n      jumpi\n      dup1\n      0x98d5fdca\n      eq\n      tag_4\n      jumpi\n      dup1\n      0xdd8c3ce0\n      eq\n      tag_5\n      jumpi\n    tag_1:\n      0x00\n      dup1\n      revert\n        /* \"PriceConverter.sol\":217:371  function showversion() public view  returns (uint256) {... */\n    tag_2:\n      tag_6\n      tag_7\n      jump\t// in\n    tag_6:\n      mload(0x40)\n      tag_8\n      swap2\n      swap1\n      tag_9\n      jump\t// in\n    tag_8:\n      mload(0x40)\n      dup1\n      swap2\n      sub\n      swap1\n      return\n        /* \"PriceConverter.sol\":644:801  function checkDecimals() public  view  returns (uint8) {... */\n    tag_3:\n      tag_10\n      tag_11\n      jump\t// in\n    tag_10:\n      mload(0x40)\n      tag_12\n      swap2\n      swap1\n      tag_13\n      jump\t// in\n    tag_12:\n      mload(0x40)\n      dup1\n      swap2\n      sub\n      swap1\n      return\n        /* \"PriceConverter.sol\":377:638  function getPrice()public view returns (uint256) {... */\n    tag_4:\n      tag_14\n      tag_15\n      jump\t// in\n    tag_14:\n      mload(0x40)\n      tag_16\n      swap2\n      swap1\n      tag_9\n      jump\t// in\n    tag_16:\n      mload(0x40)\n      dup1\n      swap2\n      sub\n      swap1\n      return\n        /* \"PriceConverter.sol\":807:1015  function convertToUsd(uint256 ethAmount) public view  returns (uint256) {... */\n    tag_5:\n      tag_17\n      0x04\n      dup1\n      calldatasize\n      sub\n      dup2\n      add\n      swap1\n      tag_18\n      swap2\n      swap1\n      tag_19\n      jump\t// in\n    tag_18:\n      tag_20\n      jump\t// in\n    tag_17:\n      mload(0x40)\n      tag_21\n      swap2\n      swap1\n      tag_9\n      jump\t// in\n    tag_21:\n      mload(0x40)\n      dup1\n      swap2\n      sub\n      swap1\n      return\n        /* \"PriceConverter.sol\":217:371  function showversion() public view  returns (uint256) {... */\n    tag_7:\n        /* \"PriceConverter.sol\":262:269  uint256 */\n      0x00\n        /* \"PriceConverter.sol\":310:352  0x694AA1769357215DE4FAC081bf1f309aDC325306 */\n      0x694aa1769357215de4fac081bf1f309adc325306\n        /* \"PriceConverter.sol\":288:361  AggregatorV3Interface(0x694AA1769357215DE4FAC081bf1f309aDC325306).version */\n      0xffffffffffffffffffffffffffffffffffffffff\n      and\n      0x54fd4d50\n        /* \"PriceConverter.sol\":288:363  AggregatorV3Interface(0x694AA1769357215DE4FAC081bf1f309aDC325306).version() */\n      mload(0x40)\n      dup2\n      0xffffffff\n      and\n      0xe0\n      shl\n      dup2\n      mstore\n      0x04\n      add\n      0x20\n      mload(0x40)\n      dup1\n      dup4\n      sub\n      dup2\n      dup7\n      gas\n      staticcall\n      iszero\n      dup1\n      iszero\n      tag_24\n      jumpi\n      returndatasize\n      0x00\n      dup1\n      returndatacopy\n      revert(0x00, returndatasize)\n    tag_24:\n      pop\n      pop\n      pop\n      pop\n      mload(0x40)\n      returndatasize\n      not(0x1f)\n      0x1f\n      dup3\n      add\n      and\n      dup3\n      add\n      dup1\n      0x40\n      mstore\n      pop\n      dup2\n      add\n      swap1\n      tag_25\n      swap2\n      swap1\n      tag_26\n      jump\t// in\n    tag_25:\n        /* \"PriceConverter.sol\":281:363  return AggregatorV3Interface(0x694AA1769357215DE4FAC081bf1f309aDC325306).version() */\n      swap1\n      pop\n        /* \"PriceConverter.sol\":217:371  function showversion() public view  returns (uint256) {... */\n      swap1\n      jump\t// out\n        /* \"PriceConverter.sol\":644:801  function checkDecimals() public  view  returns (uint8) {... */\n    tag_11:\n        /* \"PriceConverter.sol\":692:697  uint8 */\n      0x00\n        /* \"PriceConverter.sol\":739:781  0x694AA1769357215DE4FAC081bf1f309aDC325306 */\n      0x694aa1769357215de4fac081bf1f309adc325306\n        /* \"PriceConverter.sol\":717:791  AggregatorV3Interface(0x694AA1769357215DE4FAC081bf1f309aDC325306).decimals */\n      0xffffffffffffffffffffffffffffffffffffffff\n      and\n      0x313ce567\n        /* \"PriceConverter.sol\":717:793  AggregatorV3Interface(0x694AA1769357215DE4FAC081bf1f309aDC325306).decimals() */\n      mload(0x40)\n      dup2\n      0xffffffff\n      and\n      0xe0\n      shl\n      dup2\n      mstore\n      0x04\n      add\n      0x20\n      mload(0x40)\n      dup1\n      dup4\n      sub\n      dup2\n      dup7\n      gas\n      staticcall\n      iszero\n      dup1\n      iszero\n      tag_29\n      jumpi\n      returndatasize\n      0x00\n      dup1\n      returndatacopy\n      revert(0x00, returndatasize)\n    tag_29:\n      pop\n      pop\n      pop\n      pop\n      mload(0x40)\n      returndatasize\n      not(0x1f)\n      0x1f\n      dup3\n      add\n      and\n      dup3\n      add\n      dup1\n      0x40\n      mstore\n      pop\n      dup2\n      add\n      swap1\n      tag_30\n      swap2\n      swap1\n      tag_31\n      jump\t// in\n    tag_30:\n        /* \"PriceConverter.sol\":710:793  return AggregatorV3Interface(0x694AA1769357215DE4FAC081bf1f309aDC325306).decimals() */\n      swap1\n      pop\n        /* \"PriceConverter.sol\":644:801  function checkDecimals() public  view  returns (uint8) {... */\n      swap1\n      jump\t// out\n        /* \"PriceConverter.sol\":377:638  function getPrice()public view returns (uint256) {... */\n    tag_15:\n        /* \"PriceConverter.sol\":417:424  uint256 */\n      0x00\n        /* \"PriceConverter.sol\":437:468  AggregatorV3Interface priceFeed */\n      dup1\n        /* \"PriceConverter.sol\":492:534  0x694AA1769357215DE4FAC081bf1f309aDC325306 */\n      0x694aa1769357215de4fac081bf1f309adc325306\n        /* \"PriceConverter.sol\":437:535  AggregatorV3Interface priceFeed= AggregatorV3Interface(0x694AA1769357215DE4FAC081bf1f309aDC325306) */\n      swap1\n      pop\n        /* \"PriceConverter.sol\":548:560  int256 price */\n      0x00\n        /* \"PriceConverter.sol\":565:574  priceFeed */\n      dup2\n        /* \"PriceConverter.sol\":565:590  priceFeed.latestRoundData */\n      0xffffffffffffffffffffffffffffffffffffffff\n      and\n      0xfeaf968c\n        /* \"PriceConverter.sol\":565:592  priceFeed.latestRoundData() */\n      mload(0x40)\n      dup2\n      0xffffffff\n      and\n      0xe0\n      shl\n      dup2\n      mstore\n      0x04\n      add\n      0xa0\n      mload(0x40)\n      dup1\n      dup4\n      sub\n      dup2\n      dup7\n      gas\n      staticcall\n      iszero\n      dup1\n      iszero\n      tag_34\n      jumpi\n      returndatasize\n      0x00\n      dup1\n      returndatacopy\n      revert(0x00, returndatasize)\n    tag_34:\n      pop\n      pop\n      pop\n      pop\n      mload(0x40)\n      returndatasize\n      not(0x1f)\n      0x1f\n      dup3\n      add\n      and\n      dup3\n      add\n      dup1\n      0x40\n      mstore\n      pop\n      dup2\n      add\n      swap1\n      tag_35\n      swap2\n      swap1\n      tag_36\n      jump\t// in\n    tag_35:\n        /* \"PriceConverter.sol\":546:592  (,int256 price,,,)=priceFeed.latestRoundData() */\n      pop\n      pop\n      pop\n      swap2\n      pop\n      pop\n        /* \"PriceConverter.sol\":625:629  1e10 */\n      0x02540be400\n        /* \"PriceConverter.sol\":619:624  price */\n      dup2\n        /* \"PriceConverter.sol\":619:629  price*1e10 */\n      tag_37\n      swap2\n      swap1\n      tag_38\n      jump\t// in\n    tag_37:\n        /* \"PriceConverter.sol\":603:630  return  uint256(price*1e10) */\n      swap3\n      pop\n      pop\n      pop\n        /* \"PriceConverter.sol\":377:638  function getPrice()public view returns (uint256) {... */\n      swap1\n      jump\t// out\n        /* \"PriceConverter.sol\":807:1015  function convertToUsd(uint256 ethAmount) public view  returns (uint256) {... */\n    tag_20:\n        /* \"PriceConverter.sol\":870:877  uint256 */\n      0x00\n        /* \"PriceConverter.sol\":889:905  uint256 ethPrice */\n      dup1\n        /* \"PriceConverter.sol\":907:917  getPrice() */\n      tag_40\n        /* \"PriceConverter.sol\":907:915  getPrice */\n      tag_15\n        /* \"PriceConverter.sol\":907:917  getPrice() */\n      jump\t// in\n    tag_40:\n        /* \"PriceConverter.sol\":889:917  uint256 ethPrice =getPrice() */\n      swap1\n      pop\n        /* \"PriceConverter.sol\":927:949  uint256 ethInUsdAmount */\n      0x00\n        /* \"PriceConverter.sol\":972:976  1e10 */\n      0x02540be400\n        /* \"PriceConverter.sol\":961:970  ethAmount */\n      dup5\n        /* \"PriceConverter.sol\":952:960  ethPrice */\n      dup4\n        /* \"PriceConverter.sol\":952:970  ethPrice*ethAmount */\n      tag_41\n      swap2\n      swap1\n      tag_42\n      jump\t// in\n    tag_41:\n        /* \"PriceConverter.sol\":951:976  (ethPrice*ethAmount)/1e10 */\n      tag_43\n      swap2\n      swap1\n      tag_44\n      jump\t// in\n    tag_43:\n        /* \"PriceConverter.sol\":927:976  uint256 ethInUsdAmount =(ethPrice*ethAmount)/1e10 */\n      swap1\n      pop\n        /* \"PriceConverter.sol\":993:1007  ethInUsdAmount */\n      dup1\n        /* \"PriceConverter.sol\":986:1007  return ethInUsdAmount */\n      swap3\n      pop\n      pop\n      pop\n        /* \"PriceConverter.sol\":807:1015  function convertToUsd(uint256 ethAmount) public view  returns (uint256) {... */\n      swap2\n      swap1\n      pop\n      jump\t// out\n        /* \"#utility.yul\":7:84   */\n    tag_45:\n        /* \"#utility.yul\":44:51   */\n      0x00\n        /* \"#utility.yul\":73:78   */\n      dup2\n        /* \"#utility.yul\":62:78   */\n      swap1\n      pop\n        /* \"#utility.yul\":7:84   */\n      swap2\n      swap1\n      pop\n      jump\t// out\n        /* \"#utility.yul\":90:216   */\n    tag_46:\n        /* \"#utility.yul\":185:209   */\n      tag_68\n        /* \"#utility.yul\":203:208   */\n      dup2\n        /* \"#utility.yul\":185:209   */\n      tag_45\n      jump\t// in\n    tag_68:\n        /* \"#utility.yul\":180:183   */\n      dup3\n        /* \"#utility.yul\":173:210   */\n      mstore\n        /* \"#utility.yul\":90:216   */\n      pop\n      pop\n      jump\t// out\n        /* \"#utility.yul\":222:460   */\n    tag_9:\n        /* \"#utility.yul\":323:327   */\n      0x00\n        /* \"#utility.yul\":361:363   */\n      0x20\n        /* \"#utility.yul\":350:359   */\n      dup3\n        /* \"#utility.yul\":346:364   */\n      add\n        /* \"#utility.yul\":338:364   */\n      swap1\n      pop\n        /* \"#utility.yul\":374:453   */\n      tag_70\n        /* \"#utility.yul\":450:451   */\n      0x00\n        /* \"#utility.yul\":439:448   */\n      dup4\n        /* \"#utility.yul\":435:452   */\n      add\n        /* \"#utility.yul\":426:432   */\n      dup5\n        /* \"#utility.yul\":374:453   */\n      tag_46\n      jump\t// in\n    tag_70:\n        /* \"#utility.yul\":222:460   */\n      swap3\n      swap2\n      pop\n      pop\n      jump\t// out\n        /* \"#utility.yul\":466:552   */\n    tag_47:\n        /* \"#utility.yul\":501:508   */\n      0x00\n        /* \"#utility.yul\":541:545   */\n      0xff\n        /* \"#utility.yul\":534:539   */\n      dup3\n        /* \"#utility.yul\":530:546   */\n      and\n        /* \"#utility.yul\":519:546   */\n      swap1\n      pop\n        /* \"#utility.yul\":466:552   */\n      swap2\n      swap1\n      pop\n      jump\t// out\n        /* \"#utility.yul\":558:678   */\n    tag_48:\n        /* \"#utility.yul\":649:671   */\n      tag_73\n        /* \"#utility.yul\":665:670   */\n      dup2\n        /* \"#utility.yul\":649:671   */\n      tag_47\n      jump\t// in\n    tag_73:\n        /* \"#utility.yul\":644:647   */\n      dup3\n        /* \"#utility.yul\":637:672   */\n      mstore\n        /* \"#utility.yul\":558:678   */\n      pop\n      pop\n      jump\t// out\n        /* \"#utility.yul\":684:914   */\n    tag_13:\n        /* \"#utility.yul\":781:785   */\n      0x00\n        /* \"#utility.yul\":819:821   */\n      0x20\n        /* \"#utility.yul\":808:817   */\n      dup3\n        /* \"#utility.yul\":804:822   */\n      add\n        /* \"#utility.yul\":796:822   */\n      swap1\n      pop\n        /* \"#utility.yul\":832:907   */\n      tag_75\n        /* \"#utility.yul\":904:905   */\n      0x00\n        /* \"#utility.yul\":893:902   */\n      dup4\n        /* \"#utility.yul\":889:906   */\n      add\n        /* \"#utility.yul\":880:886   */\n      dup5\n        /* \"#utility.yul\":832:907   */\n      tag_48\n      jump\t// in\n    tag_75:\n        /* \"#utility.yul\":684:914   */\n      swap3\n      swap2\n      pop\n      pop\n      jump\t// out\n        /* \"#utility.yul\":1001:1118   */\n    tag_50:\n        /* \"#utility.yul\":1110:1111   */\n      0x00\n        /* \"#utility.yul\":1107:1108   */\n      dup1\n        /* \"#utility.yul\":1100:1112   */\n      revert\n        /* \"#utility.yul\":1247:1369   */\n    tag_52:\n        /* \"#utility.yul\":1320:1344   */\n      tag_80\n        /* \"#utility.yul\":1338:1343   */\n      dup2\n        /* \"#utility.yul\":1320:1344   */\n      tag_45\n      jump\t// in\n    tag_80:\n        /* \"#utility.yul\":1313:1318   */\n      dup2\n        /* \"#utility.yul\":1310:1345   */\n      eq\n        /* \"#utility.yul\":1300:1363   */\n      tag_81\n      jumpi\n        /* \"#utility.yul\":1359:1360   */\n      0x00\n        /* \"#utility.yul\":1356:1357   */\n      dup1\n        /* \"#utility.yul\":1349:1361   */\n      revert\n        /* \"#utility.yul\":1300:1363   */\n    tag_81:\n        /* \"#utility.yul\":1247:1369   */\n      pop\n      jump\t// out\n        /* \"#utility.yul\":1375:1514   */\n    tag_53:\n        /* \"#utility.yul\":1421:1426   */\n      0x00\n        /* \"#utility.yul\":1459:1465   */\n      dup2\n        /* \"#utility.yul\":1446:1466   */\n      calldataload\n        /* \"#utility.yul\":1437:1466   */\n      swap1\n      pop\n        /* \"#utility.yul\":1475:1508   */\n      tag_83\n        /* \"#utility.yul\":1502:1507   */\n      dup2\n        /* \"#utility.yul\":1475:1508   */\n      tag_52\n      jump\t// in\n    tag_83:\n        /* \"#utility.yul\":1375:1514   */\n      swap3\n      swap2\n      pop\n      pop\n      jump\t// out\n        /* \"#utility.yul\":1520:1849   */\n    tag_19:\n        /* \"#utility.yul\":1579:1585   */\n      0x00\n        /* \"#utility.yul\":1628:1630   */\n      0x20\n        /* \"#utility.yul\":1616:1625   */\n      dup3\n        /* \"#utility.yul\":1607:1614   */\n      dup5\n        /* \"#utility.yul\":1603:1626   */\n      sub\n        /* \"#utility.yul\":1599:1631   */\n      slt\n        /* \"#utility.yul\":1596:1715   */\n      iszero\n      tag_85\n      jumpi\n        /* \"#utility.yul\":1634:1713   */\n      tag_86\n      tag_50\n      jump\t// in\n    tag_86:\n        /* \"#utility.yul\":1596:1715   */\n    tag_85:\n        /* \"#utility.yul\":1754:1755   */\n      0x00\n        /* \"#utility.yul\":1779:1832   */\n      tag_87\n        /* \"#utility.yul\":1824:1831   */\n      dup5\n        /* \"#utility.yul\":1815:1821   */\n      dup3\n        /* \"#utility.yul\":1804:1813   */\n      dup6\n        /* \"#utility.yul\":1800:1822   */\n      add\n        /* \"#utility.yul\":1779:1832   */\n      tag_53\n      jump\t// in\n    tag_87:\n        /* \"#utility.yul\":1769:1832   */\n      swap2\n      pop\n        /* \"#utility.yul\":1725:1842   */\n      pop\n        /* \"#utility.yul\":1520:1849   */\n      swap3\n      swap2\n      pop\n      pop\n      jump\t// out\n        /* \"#utility.yul\":1855:1998   */\n    tag_54:\n        /* \"#utility.yul\":1912:1917   */\n      0x00\n        /* \"#utility.yul\":1943:1949   */\n      dup2\n        /* \"#utility.yul\":1937:1950   */\n      mload\n        /* \"#utility.yul\":1928:1950   */\n      swap1\n      pop\n        /* \"#utility.yul\":1959:1992   */\n      tag_89\n        /* \"#utility.yul\":1986:1991   */\n      dup2\n        /* \"#utility.yul\":1959:1992   */\n      tag_52\n      jump\t// in\n    tag_89:\n        /* \"#utility.yul\":1855:1998   */\n      swap3\n      swap2\n      pop\n      pop\n      jump\t// out\n        /* \"#utility.yul\":2004:2355   */\n    tag_26:\n        /* \"#utility.yul\":2074:2080   */\n      0x00\n        /* \"#utility.yul\":2123:2125   */\n      0x20\n        /* \"#utility.yul\":2111:2120   */\n      dup3\n        /* \"#utility.yul\":2102:2109   */\n      dup5\n        /* \"#utility.yul\":2098:2121   */\n      sub\n        /* \"#utility.yul\":2094:2126   */\n      slt\n        /* \"#utility.yul\":2091:2210   */\n      iszero\n      tag_91\n      jumpi\n        /* \"#utility.yul\":2129:2208   */\n      tag_92\n      tag_50\n      jump\t// in\n    tag_92:\n        /* \"#utility.yul\":2091:2210   */\n    tag_91:\n        /* \"#utility.yul\":2249:2250   */\n      0x00\n        /* \"#utility.yul\":2274:2338   */\n      tag_93\n        /* \"#utility.yul\":2330:2337   */\n      dup5\n        /* \"#utility.yul\":2321:2327   */\n      dup3\n        /* \"#utility.yul\":2310:2319   */\n      dup6\n        /* \"#utility.yul\":2306:2328   */\n      add\n        /* \"#utility.yul\":2274:2338   */\n      tag_54\n      jump\t// in\n    tag_93:\n        /* \"#utility.yul\":2264:2338   */\n      swap2\n      pop\n        /* \"#utility.yul\":2220:2348   */\n      pop\n        /* \"#utility.yul\":2004:2355   */\n      swap3\n      swap2\n      pop\n      pop\n      jump\t// out\n        /* \"#utility.yul\":2361:2479   */\n    tag_55:\n        /* \"#utility.yul\":2432:2454   */\n      tag_95\n        /* \"#utility.yul\":2448:2453   */\n      dup2\n        /* \"#utility.yul\":2432:2454   */\n      tag_47\n      jump\t// in\n    tag_95:\n        /* \"#utility.yul\":2425:2430   */\n      dup2\n        /* \"#utility.yul\":2422:2455   */\n      eq\n        /* \"#utility.yul\":2412:2473   */\n      tag_96\n      jumpi\n        /* \"#utility.yul\":2469:2470   */\n      0x00\n        /* \"#utility.yul\":2466:2467   */\n      dup1\n        /* \"#utility.yul\":2459:2471   */\n      revert\n        /* \"#utility.yul\":2412:2473   */\n    tag_96:\n        /* \"#utility.yul\":2361:2479   */\n      pop\n      jump\t// out\n        /* \"#utility.yul\":2485:2624   */\n    tag_56:\n        /* \"#utility.yul\":2540:2545   */\n      0x00\n        /* \"#utility.yul\":2571:2577   */\n      dup2\n        /* \"#utility.yul\":2565:2578   */\n      mload\n        /* \"#utility.yul\":2556:2578   */\n      swap1\n      pop\n        /* \"#utility.yul\":2587:2618   */\n      tag_98\n        /* \"#utility.yul\":2612:2617   */\n      dup2\n        /* \"#utility.yul\":2587:2618   */\n      tag_55\n      jump\t// in\n    tag_98:\n        /* \"#utility.yul\":2485:2624   */\n      swap3\n      swap2\n      pop\n      pop\n      jump\t// out\n        /* \"#utility.yul\":2630:2977   */\n    tag_31:\n        /* \"#utility.yul\":2698:2704   */\n      0x00\n        /* \"#utility.yul\":2747:2749   */\n      0x20\n        /* \"#utility.yul\":2735:2744   */\n      dup3\n        /* \"#utility.yul\":2726:2733   */\n      dup5\n        /* \"#utility.yul\":2722:2745   */\n      sub\n        /* \"#utility.yul\":2718:2750   */\n      slt\n        /* \"#utility.yul\":2715:2834   */\n      iszero\n      tag_100\n      jumpi\n        /* \"#utility.yul\":2753:2832   */\n      tag_101\n      tag_50\n      jump\t// in\n    tag_101:\n        /* \"#utility.yul\":2715:2834   */\n    tag_100:\n        /* \"#utility.yul\":2873:2874   */\n      0x00\n        /* \"#utility.yul\":2898:2960   */\n      tag_102\n        /* \"#utility.yul\":2952:2959   */\n      dup5\n        /* \"#utility.yul\":2943:2949   */\n      dup3\n        /* \"#utility.yul\":2932:2941   */\n      dup6\n        /* \"#utility.yul\":2928:2950   */\n      add\n        /* \"#utility.yul\":2898:2960   */\n      tag_56\n      jump\t// in\n    tag_102:\n        /* \"#utility.yul\":2888:2960   */\n      swap2\n      pop\n        /* \"#utility.yul\":2844:2970   */\n      pop\n        /* \"#utility.yul\":2630:2977   */\n      swap3\n      swap2\n      pop\n      pop\n      jump\t// out\n        /* \"#utility.yul\":2983:3088   */\n    tag_57:\n        /* \"#utility.yul\":3019:3026   */\n      0x00\n        /* \"#utility.yul\":3059:3081   */\n      0xffffffffffffffffffff\n        /* \"#utility.yul\":3052:3057   */\n      dup3\n        /* \"#utility.yul\":3048:3082   */\n      and\n        /* \"#utility.yul\":3037:3082   */\n      swap1\n      pop\n        /* \"#utility.yul\":2983:3088   */\n      swap2\n      swap1\n      pop\n      jump\t// out\n        /* \"#utility.yul\":3094:3214   */\n    tag_58:\n        /* \"#utility.yul\":3166:3189   */\n      tag_105\n        /* \"#utility.yul\":3183:3188   */\n      dup2\n        /* \"#utility.yul\":3166:3189   */\n      tag_57\n      jump\t// in\n    tag_105:\n        /* \"#utility.yul\":3159:3164   */\n      dup2\n        /* \"#utility.yul\":3156:3190   */\n      eq\n        /* \"#utility.yul\":3146:3208   */\n      tag_106\n      jumpi\n        /* \"#utility.yul\":3204:3205   */\n      0x00\n        /* \"#utility.yul\":3201:3202   */\n      dup1\n        /* \"#utility.yul\":3194:3206   */\n      revert\n        /* \"#utility.yul\":3146:3208   */\n    tag_106:\n        /* \"#utility.yul\":3094:3214   */\n      pop\n      jump\t// out\n        /* \"#utility.yul\":3220:3361   */\n    tag_59:\n        /* \"#utility.yul\":3276:3281   */\n      0x00\n        /* \"#utility.yul\":3307:3313   */\n      dup2\n        /* \"#utility.yul\":3301:3314   */\n      mload\n        /* \"#utility.yul\":3292:3314   */\n      swap1\n      pop\n        /* \"#utility.yul\":3323:3355   */\n      tag_108\n        /* \"#utility.yul\":3349:3354   */\n      dup2\n        /* \"#utility.yul\":3323:3355   */\n      tag_58\n      jump\t// in\n    tag_108:\n        /* \"#utility.yul\":3220:3361   */\n      swap3\n      swap2\n      pop\n      pop\n      jump\t// out\n        /* \"#utility.yul\":3367:3443   */\n    tag_60:\n        /* \"#utility.yul\":3403:3410   */\n      0x00\n        /* \"#utility.yul\":3432:3437   */\n      dup2\n        /* \"#utility.yul\":3421:3437   */\n      swap1\n      pop\n        /* \"#utility.yul\":3367:3443   */\n      swap2\n      swap1\n      pop\n      jump\t// out\n        /* \"#utility.yul\":3449:3569   */\n    tag_61:\n        /* \"#utility.yul\":3521:3544   */\n      tag_111\n        /* \"#utility.yul\":3538:3543   */\n      dup2\n        /* \"#utility.yul\":3521:3544   */\n      tag_60\n      jump\t// in\n    tag_111:\n        /* \"#utility.yul\":3514:3519   */\n      dup2\n        /* \"#utility.yul\":3511:3545   */\n      eq\n        /* \"#utility.yul\":3501:3563   */\n      tag_112\n      jumpi\n        /* \"#utility.yul\":3559:3560   */\n      0x00\n        /* \"#utility.yul\":3556:3557   */\n      dup1\n        /* \"#utility.yul\":3549:3561   */\n      revert\n        /* \"#utility.yul\":3501:3563   */\n    tag_112:\n        /* \"#utility.yul\":3449:3569   */\n      pop\n      jump\t// out\n        /* \"#utility.yul\":3575:3716   */\n    tag_62:\n        /* \"#utility.yul\":3631:3636   */\n      0x00\n        /* \"#utility.yul\":3662:3668   */\n      dup2\n        /* \"#utility.yul\":3656:3669   */\n      mload\n        /* \"#utility.yul\":3647:3669   */\n      swap1\n      pop\n        /* \"#utility.yul\":3678:3710   */\n      tag_114\n        /* \"#utility.yul\":3704:3709   */\n      dup2\n        /* \"#utility.yul\":3678:3710   */\n      tag_61\n      jump\t// in\n    tag_114:\n        /* \"#utility.yul\":3575:3716   */\n      swap3\n      swap2\n      pop\n      pop\n      jump\t// out\n        /* \"#utility.yul\":3722:4693   */\n    tag_36:\n        /* \"#utility.yul\":3825:3831   */\n      0x00\n        /* \"#utility.yul\":3833:3839   */\n      dup1\n        /* \"#utility.yul\":3841:3847   */\n      0x00\n        /* \"#utility.yul\":3849:3855   */\n      dup1\n        /* \"#utility.yul\":3857:3863   */\n      0x00\n        /* \"#utility.yul\":3906:3909   */\n      0xa0\n        /* \"#utility.yul\":3894:3903   */\n      dup7\n        /* \"#utility.yul\":3885:3892   */\n      dup9\n        /* \"#utility.yul\":3881:3904   */\n      sub\n        /* \"#utility.yul\":3877:3910   */\n      slt\n        /* \"#utility.yul\":3874:3994   */\n      iszero\n      tag_116\n      jumpi\n        /* \"#utility.yul\":3913:3992   */\n      tag_117\n      tag_50\n      jump\t// in\n    tag_117:\n        /* \"#utility.yul\":3874:3994   */\n    tag_116:\n        /* \"#utility.yul\":4033:4034   */\n      0x00\n        /* \"#utility.yul\":4058:4121   */\n      tag_118\n        /* \"#utility.yul\":4113:4120   */\n      dup9\n        /* \"#utility.yul\":4104:4110   */\n      dup3\n        /* \"#utility.yul\":4093:4102   */\n      dup10\n        /* \"#utility.yul\":4089:4111   */\n      add\n        /* \"#utility.yul\":4058:4121   */\n      tag_59\n      jump\t// in\n    tag_118:\n        /* \"#utility.yul\":4048:4121   */\n      swap6\n      pop\n        /* \"#utility.yul\":4004:4131   */\n      pop\n        /* \"#utility.yul\":4170:4172   */\n      0x20\n        /* \"#utility.yul\":4196:4259   */\n      tag_119\n        /* \"#utility.yul\":4251:4258   */\n      dup9\n        /* \"#utility.yul\":4242:4248   */\n      dup3\n        /* \"#utility.yul\":4231:4240   */\n      dup10\n        /* \"#utility.yul\":4227:4249   */\n      add\n        /* \"#utility.yul\":4196:4259   */\n      tag_62\n      jump\t// in\n    tag_119:\n        /* \"#utility.yul\":4186:4259   */\n      swap5\n      pop\n        /* \"#utility.yul\":4141:4269   */\n      pop\n        /* \"#utility.yul\":4308:4310   */\n      0x40\n        /* \"#utility.yul\":4334:4398   */\n      tag_120\n        /* \"#utility.yul\":4390:4397   */\n      dup9\n        /* \"#utility.yul\":4381:4387   */\n      dup3\n        /* \"#utility.yul\":4370:4379   */\n      dup10\n        /* \"#utility.yul\":4366:4388   */\n      add\n        /* \"#utility.yul\":4334:4398   */\n      tag_54\n      jump\t// in\n    tag_120:\n        /* \"#utility.yul\":4324:4398   */\n      swap4\n      pop\n        /* \"#utility.yul\":4279:4408   */\n      pop\n        /* \"#utility.yul\":4447:4449   */\n      0x60\n        /* \"#utility.yul\":4473:4537   */\n      tag_121\n        /* \"#utility.yul\":4529:4536   */\n      dup9\n        /* \"#utility.yul\":4520:4526   */\n      dup3\n        /* \"#utility.yul\":4509:4518   */\n      dup10\n        /* \"#utility.yul\":4505:4527   */\n      add\n        /* \"#utility.yul\":4473:4537   */\n      tag_54\n      jump\t// in\n    tag_121:\n        /* \"#utility.yul\":4463:4537   */\n      swap3\n      pop\n        /* \"#utility.yul\":4418:4547   */\n      pop\n        /* \"#utility.yul\":4586:4589   */\n      0x80\n        /* \"#utility.yul\":4613:4676   */\n      tag_122\n        /* \"#utility.yul\":4668:4675   */\n      dup9\n        /* \"#utility.yul\":4659:4665   */\n      dup3\n        /* \"#utility.yul\":4648:4657   */\n      dup10\n        /* \"#utility.yul\":4644:4666   */\n      add\n        /* \"#utility.yul\":4613:4676   */\n      tag_59\n      jump\t// in\n    tag_122:\n        /* \"#utility.yul\":4603:4676   */\n      swap2\n      pop\n        /* \"#utility.yul\":4557:4686   */\n      pop\n        /* \"#utility.yul\":3722:4693   */\n      swap3\n      swap6\n      pop\n      swap3\n      swap6\n      swap1\n      swap4\n      pop\n      jump\t// out\n        /* \"#utility.yul\":4699:4879   */\n    tag_63:\n        /* \"#utility.yul\":4747:4824   */\n      0x4e487b7100000000000000000000000000000000000000000000000000000000\n        /* \"#utility.yul\":4744:4745   */\n      0x00\n        /* \"#utility.yul\":4737:4825   */\n      mstore\n        /* \"#utility.yul\":4844:4848   */\n      0x11\n        /* \"#utility.yul\":4841:4842   */\n      0x04\n        /* \"#utility.yul\":4834:4849   */\n      mstore\n        /* \"#utility.yul\":4868:4872   */\n      0x24\n        /* \"#utility.yul\":4865:4866   */\n      0x00\n        /* \"#utility.yul\":4858:4873   */\n      revert\n        /* \"#utility.yul\":4885:5441   */\n    tag_38:\n        /* \"#utility.yul\":4924:4931   */\n      0x00\n        /* \"#utility.yul\":4947:4966   */\n      tag_125\n        /* \"#utility.yul\":4964:4965   */\n      dup3\n        /* \"#utility.yul\":4947:4966   */\n      tag_60\n      jump\t// in\n    tag_125:\n        /* \"#utility.yul\":4942:4966   */\n      swap2\n      pop\n        /* \"#utility.yul\":4980:4999   */\n      tag_126\n        /* \"#utility.yul\":4997:4998   */\n      dup4\n        /* \"#utility.yul\":4980:4999   */\n      tag_60\n      jump\t// in\n    tag_126:\n        /* \"#utility.yul\":4975:4999   */\n      swap3\n      pop\n        /* \"#utility.yul\":5034:5035   */\n      dup3\n        /* \"#utility.yul\":5031:5032   */\n      dup3\n        /* \"#utility.yul\":5027:5036   */\n      mul\n        /* \"#utility.yul\":5056:5085   */\n      tag_127\n        /* \"#utility.yul\":5073:5084   */\n      dup2\n        /* \"#utility.yul\":5056:5085   */\n      tag_60\n      jump\t// in\n    tag_127:\n        /* \"#utility.yul\":5045:5085   */\n      swap2\n      pop\n        /* \"#utility.yul\":5143:5209   */\n      0x8000000000000000000000000000000000000000000000000000000000000000\n        /* \"#utility.yul\":5140:5141   */\n      dup5\n        /* \"#utility.yul\":5137:5210   */\n      eq\n        /* \"#utility.yul\":5133:5134   */\n      0x00\n        /* \"#utility.yul\":5130:5131   */\n      dup5\n        /* \"#utility.yul\":5126:5135   */\n      slt\n        /* \"#utility.yul\":5122:5211   */\n      and\n        /* \"#utility.yul\":5119:5234   */\n      iszero\n      tag_128\n      jumpi\n        /* \"#utility.yul\":5214:5232   */\n      tag_129\n      tag_63\n      jump\t// in\n    tag_129:\n        /* \"#utility.yul\":5119:5234   */\n    tag_128:\n        /* \"#utility.yul\":5384:5385   */\n      dup3\n        /* \"#utility.yul\":5375:5382   */\n      dup3\n        /* \"#utility.yul\":5370:5386   */\n      sdiv\n        /* \"#utility.yul\":5367:5368   */\n      dup5\n        /* \"#utility.yul\":5364:5387   */\n      eq\n        /* \"#utility.yul\":5344:5345   */\n      dup4\n        /* \"#utility.yul\":5337:5346   */\n      iszero\n        /* \"#utility.yul\":5317:5401   */\n      or\n        /* \"#utility.yul\":5294:5434   */\n      tag_130\n      jumpi\n        /* \"#utility.yul\":5414:5432   */\n      tag_131\n      tag_63\n      jump\t// in\n    tag_131:\n        /* \"#utility.yul\":5294:5434   */\n    tag_130:\n        /* \"#utility.yul\":4932:5441   */\n      pop\n        /* \"#utility.yul\":4885:5441   */\n      swap3\n      swap2\n      pop\n      pop\n      jump\t// out\n        /* \"#utility.yul\":5447:5857   */\n    tag_42:\n        /* \"#utility.yul\":5487:5494   */\n      0x00\n        /* \"#utility.yul\":5510:5530   */\n      tag_133\n        /* \"#utility.yul\":5528:5529   */\n      dup3\n        /* \"#utility.yul\":5510:5530   */\n      tag_45\n      jump\t// in\n    tag_133:\n        /* \"#utility.yul\":5505:5530   */\n      swap2\n      pop\n        /* \"#utility.yul\":5544:5564   */\n      tag_134\n        /* \"#utility.yul\":5562:5563   */\n      dup4\n        /* \"#utility.yul\":5544:5564   */\n      tag_45\n      jump\t// in\n    tag_134:\n        /* \"#utility.yul\":5539:5564   */\n      swap3\n      pop\n        /* \"#utility.yul\":5599:5600   */\n      dup3\n        /* \"#utility.yul\":5596:5597   */\n      dup3\n        /* \"#utility.yul\":5592:5601   */\n      mul\n        /* \"#utility.yul\":5621:5651   */\n      tag_135\n        /* \"#utility.yul\":5639:5650   */\n      dup2\n        /* \"#utility.yul\":5621:5651   */\n      tag_45\n      jump\t// in\n    tag_135:\n        /* \"#utility.yul\":5610:5651   */\n      swap2\n      pop\n        /* \"#utility.yul\":5800:5801   */\n      dup3\n        /* \"#utility.yul\":5791:5798   */\n      dup3\n        /* \"#utility.yul\":5787:5802   */\n      div\n        /* \"#utility.yul\":5784:5785   */\n      dup5\n        /* \"#utility.yul\":5781:5803   */\n      eq\n        /* \"#utility.yul\":5761:5762   */\n      dup4\n        /* \"#utility.yul\":5754:5763   */\n      iszero\n        /* \"#utility.yul\":5734:5817   */\n      or\n        /* \"#utility.yul\":5711:5850   */\n      tag_136\n      jumpi\n        /* \"#utility.yul\":5830:5848   */\n      tag_137\n      tag_63\n      jump\t// in\n    tag_137:\n        /* \"#utility.yul\":5711:5850   */\n    tag_136:\n        /* \"#utility.yul\":5495:5857   */\n      pop\n        /* \"#utility.yul\":5447:5857   */\n      swap3\n      swap2\n      pop\n      pop\n      jump\t// out\n        /* \"#utility.yul\":5863:6043   */\n    tag_64:\n        /* \"#utility.yul\":5911:5988   */\n      0x4e487b7100000000000000000000000000000000000000000000000000000000\n        /* \"#utility.yul\":5908:5909   */\n      0x00\n        /* \"#utility.yul\":5901:5989   */\n      mstore\n        /* \"#utility.yul\":6008:6012   */\n      0x12\n        /* \"#utility.yul\":6005:6006   */\n      0x04\n        /* \"#utility.yul\":5998:6013   */\n      mstore\n        /* \"#utility.yul\":6032:6036   */\n      0x24\n        /* \"#utility.yul\":6029:6030   */\n      0x00\n        /* \"#utility.yul\":6022:6037   */\n      revert\n        /* \"#utility.yul\":6049:6234   */\n    tag_44:\n        /* \"#utility.yul\":6089:6090   */\n      0x00\n        /* \"#utility.yul\":6106:6126   */\n      tag_140\n        /* \"#utility.yul\":6124:6125   */\n      dup3\n        /* \"#utility.yul\":6106:6126   */\n      tag_45\n      jump\t// in\n    tag_140:\n        /* \"#utility.yul\":6101:6126   */\n      swap2\n      pop\n        /* \"#utility.yul\":6140:6160   */\n      tag_141\n        /* \"#utility.yul\":6158:6159   */\n      dup4\n        /* \"#utility.yul\":6140:6160   */\n      tag_45\n      jump\t// in\n    tag_141:\n        /* \"#utility.yul\":6135:6160   */\n      swap3\n      pop\n        /* \"#utility.yul\":6179:6180   */\n      dup3\n        /* \"#utility.yul\":6169:6204   */\n      tag_142\n      jumpi\n        /* \"#utility.yul\":6184:6202   */\n      tag_143\n      tag_64\n      jump\t// in\n    tag_143:\n        /* \"#utility.yul\":6169:6204   */\n    tag_142:\n        /* \"#utility.yul\":6226:6227   */\n      dup3\n        /* \"#utility.yul\":6223:6224   */\n      dup3\n        /* \"#utility.yul\":6219:6228   */\n      div\n        /* \"#utility.yul\":6214:6228   */\n      swap1\n      pop\n        /* \"#utility.yul\":6049:6234   */\n      swap3\n      swap2\n      pop\n      pop\n      jump\t// out\n\n    auxdata: 0xa264697066735822122010824e39861473299dad1e775d5f8c674816fcb9e06035da942cc0c1cc72b22664736f6c634300081a0033\n}\n",
				"bytecode": {
					"linkReferences": {},
					"object": "61067d61004d600b8282823980515f1a6073146041577f4e487b71000000000000000000000000000000000000000000000000000000005f525f60045260245ffd5b305f52607381538281f3fe7300000000000000000000000000000000000000003014608060405260043610610055575f3560e01c806342495d01146100595780635781c5521461007757806398d5fdca14610095578063dd8c3ce0146100b3575b5f80fd5b6100616100e3565b60405161006e91906102e3565b60405180910390f35b61007f61016a565b60405161008c9190610317565b60405180910390f35b61009d6101f1565b6040516100aa91906102e3565b60405180910390f35b6100cd60048036038101906100c8919061035e565b610296565b6040516100da91906102e3565b60405180910390f35b5f73694aa1769357215de4fac081bf1f309adc32530673ffffffffffffffffffffffffffffffffffffffff166354fd4d506040518163ffffffff1660e01b8152600401602060405180830381865afa158015610141573d5f803e3d5ffd5b505050506040513d601f19601f82011682018060405250810190610165919061039d565b905090565b5f73694aa1769357215de4fac081bf1f309adc32530673ffffffffffffffffffffffffffffffffffffffff1663313ce5676040518163ffffffff1660e01b8152600401602060405180830381865afa1580156101c8573d5f803e3d5ffd5b505050506040513d601f19601f820116820180604052508101906101ec91906103f2565b905090565b5f8073694aa1769357215de4fac081bf1f309adc32530690505f8173ffffffffffffffffffffffffffffffffffffffff1663feaf968c6040518163ffffffff1660e01b815260040160a060405180830381865afa158015610254573d5f803e3d5ffd5b505050506040513d601f19601f82011682018060405250810190610278919061048f565b5050509150506402540be4008161028f9190610533565b9250505090565b5f806102a06101f1565b90505f6402540be40084836102b591906105a9565b6102bf9190610617565b90508092505050919050565b5f819050919050565b6102dd816102cb565b82525050565b5f6020820190506102f65f8301846102d4565b92915050565b5f60ff82169050919050565b610311816102fc565b82525050565b5f60208201905061032a5f830184610308565b92915050565b5f80fd5b61033d816102cb565b8114610347575f80fd5b50565b5f8135905061035881610334565b92915050565b5f6020828403121561037357610372610330565b5b5f6103808482850161034a565b91505092915050565b5f8151905061039781610334565b92915050565b5f602082840312156103b2576103b1610330565b5b5f6103bf84828501610389565b91505092915050565b6103d1816102fc565b81146103db575f80fd5b50565b5f815190506103ec816103c8565b92915050565b5f6020828403121561040757610406610330565b5b5f610414848285016103de565b91505092915050565b5f69ffffffffffffffffffff82169050919050565b61043b8161041d565b8114610445575f80fd5b50565b5f8151905061045681610432565b92915050565b5f819050919050565b61046e8161045c565b8114610478575f80fd5b50565b5f8151905061048981610465565b92915050565b5f805f805f60a086880312156104a8576104a7610330565b5b5f6104b588828901610448565b95505060206104c68882890161047b565b94505060406104d788828901610389565b93505060606104e888828901610389565b92505060806104f988828901610448565b9150509295509295909350565b7f4e487b71000000000000000000000000000000000000000000000000000000005f52601160045260245ffd5b5f61053d8261045c565b91506105488361045c565b92508282026105568161045c565b91507f800000000000000000000000000000000000000000000000000000000000000084145f8412161561058d5761058c610506565b5b82820584148315176105a2576105a1610506565b5b5092915050565b5f6105b3826102cb565b91506105be836102cb565b92508282026105cc816102cb565b915082820484148315176105e3576105e2610506565b5b5092915050565b7f4e487b71000000000000000000000000000000000000000000000000000000005f52601260045260245ffd5b5f610621826102cb565b915061062c836102cb565b92508261063c5761063b6105ea565b5b82820490509291505056fea264697066735822122010824e39861473299dad1e775d5f8c674816fcb9e06035da942cc0c1cc72b22664736f6c634300081a0033",
					"opcodes": "PUSH2 0x67D PUSH2 0x4D PUSH1 0xB DUP3 DUP3 DUP3 CODECOPY DUP1 MLOAD PUSH0 BYTE PUSH1 0x73 EQ PUSH1 0x41 JUMPI PUSH32 0x4E487B7100000000000000000000000000000000000000000000000000000000 PUSH0 MSTORE PUSH0 PUSH1 0x4 MSTORE PUSH1 0x24 PUSH0 REVERT JUMPDEST ADDRESS PUSH0 MSTORE PUSH1 0x73 DUP2 MSTORE8 DUP3 DUP2 RETURN INVALID PUSH20 0x0 ADDRESS EQ PUSH1 0x80 PUSH1 0x40 MSTORE PUSH1 0x4 CALLDATASIZE LT PUSH2 0x55 JUMPI PUSH0 CALLDATALOAD PUSH1 0xE0 SHR DUP1 PUSH4 0x42495D01 EQ PUSH2 0x59 JUMPI DUP1 PUSH4 0x5781C552 EQ PUSH2 0x77 JUMPI DUP1 PUSH4 0x98D5FDCA EQ PUSH2 0x95 JUMPI DUP1 PUSH4 0xDD8C3CE0 EQ PUSH2 0xB3 JUMPI JUMPDEST PUSH0 DUP1 REVERT JUMPDEST PUSH2 0x61 PUSH2 0xE3 JUMP JUMPDEST PUSH1 0x40 MLOAD PUSH2 0x6E SWAP2 SWAP1 PUSH2 0x2E3 JUMP JUMPDEST PUSH1 0x40 MLOAD DUP1 SWAP2 SUB SWAP1 RETURN JUMPDEST PUSH2 0x7F PUSH2 0x16A JUMP JUMPDEST PUSH1 0x40 MLOAD PUSH2 0x8C SWAP2 SWAP1 PUSH2 0x317 JUMP JUMPDEST PUSH1 0x40 MLOAD DUP1 SWAP2 SUB SWAP1 RETURN JUMPDEST PUSH2 0x9D PUSH2 0x1F1 JUMP JUMPDEST PUSH1 0x40 MLOAD PUSH2 0xAA SWAP2 SWAP1 PUSH2 0x2E3 JUMP JUMPDEST PUSH1 0x40 MLOAD DUP1 SWAP2 SUB SWAP1 RETURN JUMPDEST PUSH2 0xCD PUSH1 0x4 DUP1 CALLDATASIZE SUB DUP2 ADD SWAP1 PUSH2 0xC8 SWAP2 SWAP1 PUSH2 0x35E JUMP JUMPDEST PUSH2 0x296 JUMP JUMPDEST PUSH1 0x40 MLOAD PUSH2 0xDA SWAP2 SWAP1 PUSH2 0x2E3 JUMP JUMPDEST PUSH1 0x40 MLOAD DUP1 SWAP2 SUB SWAP1 RETURN JUMPDEST PUSH0 PUSH20 0x694AA1769357215DE4FAC081BF1F309ADC325306 PUSH20 0xFFFFFFFFFFFFFFFFFFFFFFFFFFFFFFFFFFFFFFFF AND PUSH4 0x54FD4D50 PUSH1 0x40 MLOAD DUP2 PUSH4 0xFFFFFFFF AND PUSH1 0xE0 SHL DUP2 MSTORE PUSH1 0x4 ADD PUSH1 0x20 PUSH1 0x40 MLOAD DUP1 DUP4 SUB DUP2 DUP7 GAS STATICCALL ISZERO DUP1 ISZERO PUSH2 0x141 JUMPI RETURNDATASIZE PUSH0 DUP1 RETURNDATACOPY RETURNDATASIZE PUSH0 REVERT JUMPDEST POP POP POP POP PUSH1 0x40 MLOAD RETURNDATASIZE PUSH1 0x1F NOT PUSH1 0x1F DUP3 ADD AND DUP3 ADD DUP1 PUSH1 0x40 MSTORE POP DUP2 ADD SWAP1 PUSH2 0x165 SWAP2 SWAP1 PUSH2 0x39D JUMP JUMPDEST SWAP1 POP SWAP1 JUMP JUMPDEST PUSH0 PUSH20 0x694AA1769357215DE4FAC081BF1F309ADC325306 PUSH20 0xFFFFFFFFFFFFFFFFFFFFFFFFFFFFFFFFFFFFFFFF AND PUSH4 0x313CE567 PUSH1 0x40 MLOAD DUP2 PUSH4 0xFFFFFFFF AND PUSH1 0xE0 SHL DUP2 MSTORE PUSH1 0x4 ADD PUSH1 0x20 PUSH1 0x40 MLOAD DUP1 DUP4 SUB DUP2 DUP7 GAS STATICCALL ISZERO DUP1 ISZERO PUSH2 0x1C8 JUMPI RETURNDATASIZE PUSH0 DUP1 RETURNDATACOPY RETURNDATASIZE PUSH0 REVERT JUMPDEST POP POP POP POP PUSH1 0x40 MLOAD RETURNDATASIZE PUSH1 0x1F NOT PUSH1 0x1F DUP3 ADD AND DUP3 ADD DUP1 PUSH1 0x40 MSTORE POP DUP2 ADD SWAP1 PUSH2 0x1EC SWAP2 SWAP1 PUSH2 0x3F2 JUMP JUMPDEST SWAP1 POP SWAP1 JUMP JUMPDEST PUSH0 DUP1 PUSH20 0x694AA1769357215DE4FAC081BF1F309ADC325306 SWAP1 POP PUSH0 DUP2 PUSH20 0xFFFFFFFFFFFFFFFFFFFFFFFFFFFFFFFFFFFFFFFF AND PUSH4 0xFEAF968C PUSH1 0x40 MLOAD DUP2 PUSH4 0xFFFFFFFF AND PUSH1 0xE0 SHL DUP2 MSTORE PUSH1 0x4 ADD PUSH1 0xA0 PUSH1 0x40 MLOAD DUP1 DUP4 SUB DUP2 DUP7 GAS STATICCALL ISZERO DUP1 ISZERO PUSH2 0x254 JUMPI RETURNDATASIZE PUSH0 DUP1 RETURNDATACOPY RETURNDATASIZE PUSH0 REVERT JUMPDEST POP POP POP POP PUSH1 0x40 MLOAD RETURNDATASIZE PUSH1 0x1F NOT PUSH1 0x1F DUP3 ADD AND DUP3 ADD DUP1 PUSH1 0x40 MSTORE POP DUP2 ADD SWAP1 PUSH2 0x278 SWAP2 SWAP1 PUSH2 0x48F JUMP JUMPDEST POP POP POP SWAP2 POP POP PUSH5 0x2540BE400 DUP2 PUSH2 0x28F SWAP2 SWAP1 PUSH2 0x533 JUMP JUMPDEST SWAP3 POP POP POP SWAP1 JUMP JUMPDEST PUSH0 DUP1 PUSH2 0x2A0 PUSH2 0x1F1 JUMP JUMPDEST SWAP1 POP PUSH0 PUSH5 0x2540BE400 DUP5 DUP4 PUSH2 0x2B5 SWAP2 SWAP1 PUSH2 0x5A9 JUMP JUMPDEST PUSH2 0x2BF SWAP2 SWAP1 PUSH2 0x617 JUMP JUMPDEST SWAP1 POP DUP1 SWAP3 POP POP POP SWAP2 SWAP1 POP JUMP JUMPDEST PUSH0 DUP2 SWAP1 POP SWAP2 SWAP1 POP JUMP JUMPDEST PUSH2 0x2DD DUP2 PUSH2 0x2CB JUMP JUMPDEST DUP3 MSTORE POP POP JUMP JUMPDEST PUSH0 PUSH1 0x20 DUP3 ADD SWAP1 POP PUSH2 0x2F6 PUSH0 DUP4 ADD DUP5 PUSH2 0x2D4 JUMP JUMPDEST SWAP3 SWAP2 POP POP JUMP JUMPDEST PUSH0 PUSH1 0xFF DUP3 AND SWAP1 POP SWAP2 SWAP1 POP JUMP JUMPDEST PUSH2 0x311 DUP2 PUSH2 0x2FC JUMP JUMPDEST DUP3 MSTORE POP POP JUMP JUMPDEST PUSH0 PUSH1 0x20 DUP3 ADD SWAP1 POP PUSH2 0x32A PUSH0 DUP4 ADD DUP5 PUSH2 0x308 JUMP JUMPDEST SWAP3 SWAP2 POP POP JUMP JUMPDEST PUSH0 DUP1 REVERT JUMPDEST PUSH2 0x33D DUP2 PUSH2 0x2CB JUMP JUMPDEST DUP2 EQ PUSH2 0x347 JUMPI PUSH0 DUP1 REVERT JUMPDEST POP JUMP JUMPDEST PUSH0 DUP2 CALLDATALOAD SWAP1 POP PUSH2 0x358 DUP2 PUSH2 0x334 JUMP JUMPDEST SWAP3 SWAP2 POP POP JUMP JUMPDEST PUSH0 PUSH1 0x20 DUP3 DUP5 SUB SLT ISZERO PUSH2 0x373 JUMPI PUSH2 0x372 PUSH2 0x330 JUMP JUMPDEST JUMPDEST PUSH0 PUSH2 0x380 DUP5 DUP3 DUP6 ADD PUSH2 0x34A JUMP JUMPDEST SWAP2 POP POP SWAP3 SWAP2 POP POP JUMP JUMPDEST PUSH0 DUP2 MLOAD SWAP1 POP PUSH2 0x397 DUP2 PUSH2 0x334 JUMP JUMPDEST SWAP3 SWAP2 POP POP JUMP JUMPDEST PUSH0 PUSH1 0x20 DUP3 DUP5 SUB SLT ISZERO PUSH2 0x3B2 JUMPI PUSH2 0x3B1 PUSH2 0x330 JUMP JUMPDEST JUMPDEST PUSH0 PUSH2 0x3BF DUP5 DUP3 DUP6 ADD PUSH2 0x389 JUMP JUMPDEST SWAP2 POP POP SWAP3 SWAP2 POP POP JUMP JUMPDEST PUSH2 0x3D1 DUP2 PUSH2 0x2FC JUMP JUMPDEST DUP2 EQ PUSH2 0x3DB JUMPI PUSH0 DUP1 REVERT JUMPDEST POP JUMP JUMPDEST PUSH0 DUP2 MLOAD SWAP1 POP PUSH2 0x3EC DUP2 PUSH2 0x3C8 JUMP JUMPDEST SWAP3 SWAP2 POP POP JUMP JUMPDEST PUSH0 PUSH1 0x20 DUP3 DUP5 SUB SLT ISZERO PUSH2 0x407 JUMPI PUSH2 0x406 PUSH2 0x330 JUMP JUMPDEST JUMPDEST PUSH0 PUSH2 0x414 DUP5 DUP3 DUP6 ADD PUSH2 0x3DE JUMP JUMPDEST SWAP2 POP POP SWAP3 SWAP2 POP POP JUMP JUMPDEST PUSH0 PUSH10 0xFFFFFFFFFFFFFFFFFFFF DUP3 AND SWAP1 POP SWAP2 SWAP1 POP JUMP JUMPDEST PUSH2 0x43B DUP2 PUSH2 0x41D JUMP JUMPDEST DUP2 EQ PUSH2 0x445 JUMPI PUSH0 DUP1 REVERT JUMPDEST POP JUMP JUMPDEST PUSH0 DUP2 MLOAD SWAP1 POP PUSH2 0x456 DUP2 PUSH2 0x432 JUMP JUMPDEST SWAP3 SWAP2 POP POP JUMP JUMPDEST PUSH0 DUP2 SWAP1 POP SWAP2 SWAP1 POP JUMP JUMPDEST PUSH2 0x46E DUP2 PUSH2 0x45C JUMP JUMPDEST DUP2 EQ PUSH2 0x478 JUMPI PUSH0 DUP1 REVERT JUMPDEST POP JUMP JUMPDEST PUSH0 DUP2 MLOAD SWAP1 POP PUSH2 0x489 DUP2 PUSH2 0x465 JUMP JUMPDEST SWAP3 SWAP2 POP POP JUMP JUMPDEST PUSH0 DUP1 PUSH0 DUP1 PUSH0 PUSH1 0xA0 DUP7 DUP9 SUB SLT ISZERO PUSH2 0x4A8 JUMPI PUSH2 0x4A7 PUSH2 0x330 JUMP JUMPDEST JUMPDEST PUSH0 PUSH2 0x4B5 DUP9 DUP3 DUP10 ADD PUSH2 0x448 JUMP JUMPDEST SWAP6 POP POP PUSH1 0x20 PUSH2 0x4C6 DUP9 DUP3 DUP10 ADD PUSH2 0x47B JUMP JUMPDEST SWAP5 POP POP PUSH1 0x40 PUSH2 0x4D7 DUP9 DUP3 DUP10 ADD PUSH2 0x389 JUMP JUMPDEST SWAP4 POP POP PUSH1 0x60 PUSH2 0x4E8 DUP9 DUP3 DUP10 ADD PUSH2 0x389 JUMP JUMPDEST SWAP3 POP POP PUSH1 0x80 PUSH2 0x4F9 DUP9 DUP3 DUP10 ADD PUSH2 0x448 JUMP JUMPDEST SWAP2 POP POP SWAP3 SWAP6 POP SWAP3 SWAP6 SWAP1 SWAP4 POP JUMP JUMPDEST PUSH32 0x4E487B7100000000000000000000000000000000000000000000000000000000 PUSH0 MSTORE PUSH1 0x11 PUSH1 0x4 MSTORE PUSH1 0x24 PUSH0 REVERT JUMPDEST PUSH0 PUSH2 0x53D DUP3 PUSH2 0x45C JUMP JUMPDEST SWAP2 POP PUSH2 0x548 DUP4 PUSH2 0x45C JUMP JUMPDEST SWAP3 POP DUP3 DUP3 MUL PUSH2 0x556 DUP2 PUSH2 0x45C JUMP JUMPDEST SWAP2 POP PUSH32 0x8000000000000000000000000000000000000000000000000000000000000000 DUP5 EQ PUSH0 DUP5 SLT AND ISZERO PUSH2 0x58D JUMPI PUSH2 0x58C PUSH2 0x506 JUMP JUMPDEST JUMPDEST DUP3 DUP3 SDIV DUP5 EQ DUP4 ISZERO OR PUSH2 0x5A2 JUMPI PUSH2 0x5A1 PUSH2 0x506 JUMP JUMPDEST JUMPDEST POP SWAP3 SWAP2 POP POP JUMP JUMPDEST PUSH0 PUSH2 0x5B3 DUP3 PUSH2 0x2CB JUMP JUMPDEST SWAP2 POP PUSH2 0x5BE DUP4 PUSH2 0x2CB JUMP JUMPDEST SWAP3 POP DUP3 DUP3 MUL PUSH2 0x5CC DUP2 PUSH2 0x2CB JUMP JUMPDEST SWAP2 POP DUP3 DUP3 DIV DUP5 EQ DUP4 ISZERO OR PUSH2 0x5E3 JUMPI PUSH2 0x5E2 PUSH2 0x506 JUMP JUMPDEST JUMPDEST POP SWAP3 SWAP2 POP POP JUMP JUMPDEST PUSH32 0x4E487B7100000000000000000000000000000000000000000000000000000000 PUSH0 MSTORE PUSH1 0x12 PUSH1 0x4 MSTORE PUSH1 0x24 PUSH0 REVERT JUMPDEST PUSH0 PUSH2 0x621 DUP3 PUSH2 0x2CB JUMP JUMPDEST SWAP2 POP PUSH2 0x62C DUP4 PUSH2 0x2CB JUMP JUMPDEST SWAP3 POP DUP3 PUSH2 0x63C JUMPI PUSH2 0x63B PUSH2 0x5EA JUMP JUMPDEST JUMPDEST DUP3 DUP3 DIV SWAP1 POP SWAP3 SWAP2 POP POP JUMP INVALID LOG2 PUSH5 0x6970667358 0x22 SLT KECCAK256 LT DUP3 0x4E CODECOPY DUP7 EQ PUSH20 0x299DAD1E775D5F8C674816FCB9E06035DA942CC0 0xC1 0xCC PUSH19 0xB22664736F6C634300081A0033000000000000 "
				},
				"gasEstimates": {
					"creation": {
						"codeDepositCost": "332200",
						"executionCost": "394",
						"totalCost": "332594"
					},
					"external": {
						"checkDecimals()": "infinite",
						"convertToUsd(uint256)": "infinite",
						"getPrice()": "infinite",
						"showversion()": "infinite"
					}
				},
				"methodIdentifiers": {
					"checkDecimals()": "5781c552",
					"convertToUsd(uint256)": "dd8c3ce0",
					"getPrice()": "98d5fdca",
					"showversion()": "42495d01"
				}
			},
			"storageLayout": {
				"storage": [],
				"types": null
			},
			"userdoc": {
				"kind": "user",
				"methods": {},
				"version": 1
			}
		}
	}
}