{
	"data": {
		"bytecode": {
			"linkReferences": {
				"PriceConverter.sol": {
					"PriceConverter": [
						{
							"length": 20,
							"start": 388
						}
					]
				}
			},
			"object": "60a0604052348015600e575f80fd5b503373ffffffffffffffffffffffffffffffffffffffff1660808173ffffffffffffffffffffffffffffffffffffffff1681525050608051610a026100625f395f81816102d1015261051a0152610a025ff3fe60806040526004361061004d575f3560e01c80632100f479146100665780633ccfd60b146100905780633e47d6f3146100a6578063b60d4288146100e2578063dba6335f146100ec5761005c565b3661005c5761005a610116565b005b610064610116565b005b348015610071575f80fd5b5061007a6102c3565b60405161008791906105f6565b60405180910390f35b34801561009b575f80fd5b506100a46102cf565b005b3480156100b1575f80fd5b506100cc60048036038101906100c7919061066d565b610503565b6040516100d991906105f6565b60405180910390f35b6100ea610116565b005b3480156100f7575f80fd5b50610100610518565b60405161010d91906106a7565b60405180910390f35b674563918244f400003473__$0eaef9e137657dd7174bf71a05772e68ff$__63dd8c3ce090916040518263ffffffff1660e01b815260040161015891906106cf565b602060405180830381865af4158015610173573d5f803e3d5ffd5b505050506040513d601f19601f820116820180604052508101906101979190610712565b10156101d8576040517f08c379a00000000000000000000000000000000000000000000000000000000081526004016101cf90610797565b60405180910390fd5b5f33908060018154018082558091505060019003905f5260205f20015f9091909190916101000a81548173ffffffffffffffffffffffffffffffffffffffff021916908373ffffffffffffffffffffffffffffffffffffffff16021790555060015f3373ffffffffffffffffffffffffffffffffffffffff1673ffffffffffffffffffffffffffffffffffffffff1681526020019081526020015f20543461028091906107e2565b60015f3373ffffffffffffffffffffffffffffffffffffffff1673ffffffffffffffffffffffffffffffffffffffff1681526020019081526020015f2081905550565b674563918244f4000081565b7f000000000000000000000000000000000000000000000000000000000000000073ffffffffffffffffffffffffffffffffffffffff163373ffffffffffffffffffffffffffffffffffffffff161461035d576040517f08c379a000000000000000000000000000000000000000000000000000000000815260040161035490610885565b60405180910390fd5b5f5b5f805490508110156103f9575f80828154811061037f5761037e6108a3565b5b905f5260205f20015f9054906101000a900473ffffffffffffffffffffffffffffffffffffffff1690505f60015f8373ffffffffffffffffffffffffffffffffffffffff1673ffffffffffffffffffffffffffffffffffffffff1681526020019081526020015f208190555050808060010191505061035f565b505f67ffffffffffffffff811115610414576104136108d0565b5b6040519080825280602002602001820160405280156104425781602001602082028036833780820191505090505b505f908051906020019061045792919061053c565b505f3373ffffffffffffffffffffffffffffffffffffffff164760405161047d9061092a565b5f6040518083038185875af1925050503d805f81146104b7576040519150601f19603f3d011682016040523d82523d5f602084013e6104bc565b606091505b5050905080610500576040517f08c379a00000000000000000000000000000000000000000000000000000000081526004016104f7906109ae565b60405180910390fd5b50565b6001602052805f5260405f205f915090505481565b7f000000000000000000000000000000000000000000000000000000000000000081565b828054828255905f5260205f209081019282156105b2579160200282015b828111156105b1578251825f6101000a81548173ffffffffffffffffffffffffffffffffffffffff021916908373ffffffffffffffffffffffffffffffffffffffff1602179055509160200191906001019061055a565b5b5090506105bf91906105c3565b5090565b5b808211156105da575f815f9055506001016105c4565b5090565b5f819050919050565b6105f0816105de565b82525050565b5f6020820190506106095f8301846105e7565b92915050565b5f80fd5b5f73ffffffffffffffffffffffffffffffffffffffff82169050919050565b5f61063c82610613565b9050919050565b61064c81610632565b8114610656575f80fd5b50565b5f8135905061066781610643565b92915050565b5f602082840312156106825761068161060f565b5b5f61068f84828501610659565b91505092915050565b6106a181610632565b82525050565b5f6020820190506106ba5f830184610698565b92915050565b6106c9816105de565b82525050565b5f6020820190506106e25f8301846106c0565b92915050565b6106f1816105de565b81146106fb575f80fd5b50565b5f8151905061070c816106e8565b92915050565b5f602082840312156107275761072661060f565b5b5f610734848285016106fe565b91505092915050565b5f82825260208201905092915050565b7f4574682073656e74206973206e6f7420656e6f756768000000000000000000005f82015250565b5f61078160168361073d565b915061078c8261074d565b602082019050919050565b5f6020820190508181035f8301526107ae81610775565b9050919050565b7f4e487b71000000000000000000000000000000000000000000000000000000005f52601160045260245ffd5b5f6107ec826105de565b91506107f7836105de565b925082820190508082111561080f5761080e6107b5565b5b92915050565b7f596f75206d75737420626520746865206f776e6572206f662074686520636f6e5f8201527f747261637420746f20706572666f726d207468697320616374696f6e21212100602082015250565b5f61086f603f8361073d565b915061087a82610815565b604082019050919050565b5f6020820190508181035f83015261089c81610863565b9050919050565b7f4e487b71000000000000000000000000000000000000000000000000000000005f52603260045260245ffd5b7f4e487b71000000000000000000000000000000000000000000000000000000005f52604160045260245ffd5b5f81905092915050565b50565b5f6109155f836108fd565b915061092082610907565b5f82019050919050565b5f6109348261090a565b9150819050919050565b7f596f752063616e27742077697468647261772061742074686973206d6f6d656e5f8201527f7400000000000000000000000000000000000000000000000000000000000000602082015250565b5f61099860218361073d565b91506109a38261093e565b604082019050919050565b5f6020820190508181035f8301526109c58161098c565b905091905056fea2646970667358221220eba9cefa929dbfe790cab12783b135048dccfb6bf21a8c1ab2e441381d88e32164736f6c634300081a0033",
			"opcodes": "PUSH1 0xA0 PUSH1 0x40 MSTORE CALLVALUE DUP1 ISZERO PUSH1 0xE JUMPI PUSH0 DUP1 REVERT JUMPDEST POP CALLER PUSH20 0xFFFFFFFFFFFFFFFFFFFFFFFFFFFFFFFFFFFFFFFF AND PUSH1 0x80 DUP2 PUSH20 0xFFFFFFFFFFFFFFFFFFFFFFFFFFFFFFFFFFFFFFFF AND DUP2 MSTORE POP POP PUSH1 0x80 MLOAD PUSH2 0xA02 PUSH2 0x62 PUSH0 CODECOPY PUSH0 DUP2 DUP2 PUSH2 0x2D1 ADD MSTORE PUSH2 0x51A ADD MSTORE PUSH2 0xA02 PUSH0 RETURN INVALID PUSH1 0x80 PUSH1 0x40 MSTORE PUSH1 0x4 CALLDATASIZE LT PUSH2 0x4D JUMPI PUSH0 CALLDATALOAD PUSH1 0xE0 SHR DUP1 PUSH4 0x2100F479 EQ PUSH2 0x66 JUMPI DUP1 PUSH4 0x3CCFD60B EQ PUSH2 0x90 JUMPI DUP1 PUSH4 0x3E47D6F3 EQ PUSH2 0xA6 JUMPI DUP1 PUSH4 0xB60D4288 EQ PUSH2 0xE2 JUMPI DUP1 PUSH4 0xDBA6335F EQ PUSH2 0xEC JUMPI PUSH2 0x5C JUMP JUMPDEST CALLDATASIZE PUSH2 0x5C JUMPI PUSH2 0x5A PUSH2 0x116 JUMP JUMPDEST STOP JUMPDEST PUSH2 0x64 PUSH2 0x116 JUMP JUMPDEST STOP JUMPDEST CALLVALUE DUP1 ISZERO PUSH2 0x71 JUMPI PUSH0 DUP1 REVERT JUMPDEST POP PUSH2 0x7A PUSH2 0x2C3 JUMP JUMPDEST PUSH1 0x40 MLOAD PUSH2 0x87 SWAP2 SWAP1 PUSH2 0x5F6 JUMP JUMPDEST PUSH1 0x40 MLOAD DUP1 SWAP2 SUB SWAP1 RETURN JUMPDEST CALLVALUE DUP1 ISZERO PUSH2 0x9B JUMPI PUSH0 DUP1 REVERT JUMPDEST POP PUSH2 0xA4 PUSH2 0x2CF JUMP JUMPDEST STOP JUMPDEST CALLVALUE DUP1 ISZERO PUSH2 0xB1 JUMPI PUSH0 DUP1 REVERT JUMPDEST POP PUSH2 0xCC PUSH1 0x4 DUP1 CALLDATASIZE SUB DUP2 ADD SWAP1 PUSH2 0xC7 SWAP2 SWAP1 PUSH2 0x66D JUMP JUMPDEST PUSH2 0x503 JUMP JUMPDEST PUSH1 0x40 MLOAD PUSH2 0xD9 SWAP2 SWAP1 PUSH2 0x5F6 JUMP JUMPDEST PUSH1 0x40 MLOAD DUP1 SWAP2 SUB SWAP1 RETURN JUMPDEST PUSH2 0xEA PUSH2 0x116 JUMP JUMPDEST STOP JUMPDEST CALLVALUE DUP1 ISZERO PUSH2 0xF7 JUMPI PUSH0 DUP1 REVERT JUMPDEST POP PUSH2 0x100 PUSH2 0x518 JUMP JUMPDEST PUSH1 0x40 MLOAD PUSH2 0x10D SWAP2 SWAP1 PUSH2 0x6A7 JUMP JUMPDEST PUSH1 0x40 MLOAD DUP1 SWAP2 SUB SWAP1 RETURN JUMPDEST PUSH8 0x4563918244F40000 CALLVALUE PUSH20 0x0 PUSH4 0xDD8C3CE0 SWAP1 SWAP2 PUSH1 0x40 MLOAD DUP3 PUSH4 0xFFFFFFFF AND PUSH1 0xE0 SHL DUP2 MSTORE PUSH1 0x4 ADD PUSH2 0x158 SWAP2 SWAP1 PUSH2 0x6CF JUMP JUMPDEST PUSH1 0x20 PUSH1 0x40 MLOAD DUP1 DUP4 SUB DUP2 DUP7 GAS DELEGATECALL ISZERO DUP1 ISZERO PUSH2 0x173 JUMPI RETURNDATASIZE PUSH0 DUP1 RETURNDATACOPY RETURNDATASIZE PUSH0 REVERT JUMPDEST POP POP POP POP PUSH1 0x40 MLOAD RETURNDATASIZE PUSH1 0x1F NOT PUSH1 0x1F DUP3 ADD AND DUP3 ADD DUP1 PUSH1 0x40 MSTORE POP DUP2 ADD SWAP1 PUSH2 0x197 SWAP2 SWAP1 PUSH2 0x712 JUMP JUMPDEST LT ISZERO PUSH2 0x1D8 JUMPI PUSH1 0x40 MLOAD PUSH32 0x8C379A000000000000000000000000000000000000000000000000000000000 DUP2 MSTORE PUSH1 0x4 ADD PUSH2 0x1CF SWAP1 PUSH2 0x797 JUMP JUMPDEST PUSH1 0x40 MLOAD DUP1 SWAP2 SUB SWAP1 REVERT JUMPDEST PUSH0 CALLER SWAP1 DUP1 PUSH1 0x1 DUP2 SLOAD ADD DUP1 DUP3 SSTORE DUP1 SWAP2 POP POP PUSH1 0x1 SWAP1 SUB SWAP1 PUSH0 MSTORE PUSH1 0x20 PUSH0 KECCAK256 ADD PUSH0 SWAP1 SWAP2 SWAP1 SWAP2 SWAP1 SWAP2 PUSH2 0x100 EXP DUP2 SLOAD DUP2 PUSH20 0xFFFFFFFFFFFFFFFFFFFFFFFFFFFFFFFFFFFFFFFF MUL NOT AND SWAP1 DUP4 PUSH20 0xFFFFFFFFFFFFFFFFFFFFFFFFFFFFFFFFFFFFFFFF AND MUL OR SWAP1 SSTORE POP PUSH1 0x1 PUSH0 CALLER PUSH20 0xFFFFFFFFFFFFFFFFFFFFFFFFFFFFFFFFFFFFFFFF AND PUSH20 0xFFFFFFFFFFFFFFFFFFFFFFFFFFFFFFFFFFFFFFFF AND DUP2 MSTORE PUSH1 0x20 ADD SWAP1 DUP2 MSTORE PUSH1 0x20 ADD PUSH0 KECCAK256 SLOAD CALLVALUE PUSH2 0x280 SWAP2 SWAP1 PUSH2 0x7E2 JUMP JUMPDEST PUSH1 0x1 PUSH0 CALLER PUSH20 0xFFFFFFFFFFFFFFFFFFFFFFFFFFFFFFFFFFFFFFFF AND PUSH20 0xFFFFFFFFFFFFFFFFFFFFFFFFFFFFFFFFFFFFFFFF AND DUP2 MSTORE PUSH1 0x20 ADD SWAP1 DUP2 MSTORE PUSH1 0x20 ADD PUSH0 KECCAK256 DUP2 SWAP1 SSTORE POP JUMP JUMPDEST PUSH8 0x4563918244F40000 DUP2 JUMP JUMPDEST PUSH32 0x0 PUSH20 0xFFFFFFFFFFFFFFFFFFFFFFFFFFFFFFFFFFFFFFFF AND CALLER PUSH20 0xFFFFFFFFFFFFFFFFFFFFFFFFFFFFFFFFFFFFFFFF AND EQ PUSH2 0x35D JUMPI PUSH1 0x40 MLOAD PUSH32 0x8C379A000000000000000000000000000000000000000000000000000000000 DUP2 MSTORE PUSH1 0x4 ADD PUSH2 0x354 SWAP1 PUSH2 0x885 JUMP JUMPDEST PUSH1 0x40 MLOAD DUP1 SWAP2 SUB SWAP1 REVERT JUMPDEST PUSH0 JUMPDEST PUSH0 DUP1 SLOAD SWAP1 POP DUP2 LT ISZERO PUSH2 0x3F9 JUMPI PUSH0 DUP1 DUP3 DUP2 SLOAD DUP2 LT PUSH2 0x37F JUMPI PUSH2 0x37E PUSH2 0x8A3 JUMP JUMPDEST JUMPDEST SWAP1 PUSH0 MSTORE PUSH1 0x20 PUSH0 KECCAK256 ADD PUSH0 SWAP1 SLOAD SWAP1 PUSH2 0x100 EXP SWAP1 DIV PUSH20 0xFFFFFFFFFFFFFFFFFFFFFFFFFFFFFFFFFFFFFFFF AND SWAP1 POP PUSH0 PUSH1 0x1 PUSH0 DUP4 PUSH20 0xFFFFFFFFFFFFFFFFFFFFFFFFFFFFFFFFFFFFFFFF AND PUSH20 0xFFFFFFFFFFFFFFFFFFFFFFFFFFFFFFFFFFFFFFFF AND DUP2 MSTORE PUSH1 0x20 ADD SWAP1 DUP2 MSTORE PUSH1 0x20 ADD PUSH0 KECCAK256 DUP2 SWAP1 SSTORE POP POP DUP1 DUP1 PUSH1 0x1 ADD SWAP2 POP POP PUSH2 0x35F JUMP JUMPDEST POP PUSH0 PUSH8 0xFFFFFFFFFFFFFFFF DUP2 GT ISZERO PUSH2 0x414 JUMPI PUSH2 0x413 PUSH2 0x8D0 JUMP JUMPDEST JUMPDEST PUSH1 0x40 MLOAD SWAP1 DUP1 DUP3 MSTORE DUP1 PUSH1 0x20 MUL PUSH1 0x20 ADD DUP3 ADD PUSH1 0x40 MSTORE DUP1 ISZERO PUSH2 0x442 JUMPI DUP2 PUSH1 0x20 ADD PUSH1 0x20 DUP3 MUL DUP1 CALLDATASIZE DUP4 CALLDATACOPY DUP1 DUP3 ADD SWAP2 POP POP SWAP1 POP JUMPDEST POP PUSH0 SWAP1 DUP1 MLOAD SWAP1 PUSH1 0x20 ADD SWAP1 PUSH2 0x457 SWAP3 SWAP2 SWAP1 PUSH2 0x53C JUMP JUMPDEST POP PUSH0 CALLER PUSH20 0xFFFFFFFFFFFFFFFFFFFFFFFFFFFFFFFFFFFFFFFF AND SELFBALANCE PUSH1 0x40 MLOAD PUSH2 0x47D SWAP1 PUSH2 0x92A JUMP JUMPDEST PUSH0 PUSH1 0x40 MLOAD DUP1 DUP4 SUB DUP2 DUP6 DUP8 GAS CALL SWAP3 POP POP POP RETURNDATASIZE DUP1 PUSH0 DUP2 EQ PUSH2 0x4B7 JUMPI PUSH1 0x40 MLOAD SWAP2 POP PUSH1 0x1F NOT PUSH1 0x3F RETURNDATASIZE ADD AND DUP3 ADD PUSH1 0x40 MSTORE RETURNDATASIZE DUP3 MSTORE RETURNDATASIZE PUSH0 PUSH1 0x20 DUP5 ADD RETURNDATACOPY PUSH2 0x4BC JUMP JUMPDEST PUSH1 0x60 SWAP2 POP JUMPDEST POP POP SWAP1 POP DUP1 PUSH2 0x500 JUMPI PUSH1 0x40 MLOAD PUSH32 0x8C379A000000000000000000000000000000000000000000000000000000000 DUP2 MSTORE PUSH1 0x4 ADD PUSH2 0x4F7 SWAP1 PUSH2 0x9AE JUMP JUMPDEST PUSH1 0x40 MLOAD DUP1 SWAP2 SUB SWAP1 REVERT JUMPDEST POP JUMP JUMPDEST PUSH1 0x1 PUSH1 0x20 MSTORE DUP1 PUSH0 MSTORE PUSH1 0x40 PUSH0 KECCAK256 PUSH0 SWAP2 POP SWAP1 POP SLOAD DUP2 JUMP JUMPDEST PUSH32 0x0 DUP2 JUMP JUMPDEST DUP3 DUP1 SLOAD DUP3 DUP3 SSTORE SWAP1 PUSH0 MSTORE PUSH1 0x20 PUSH0 KECCAK256 SWAP1 DUP2 ADD SWAP3 DUP3 ISZERO PUSH2 0x5B2 JUMPI SWAP2 PUSH1 0x20 MUL DUP3 ADD JUMPDEST DUP3 DUP2 GT ISZERO PUSH2 0x5B1 JUMPI DUP3 MLOAD DUP3 PUSH0 PUSH2 0x100 EXP DUP2 SLOAD DUP2 PUSH20 0xFFFFFFFFFFFFFFFFFFFFFFFFFFFFFFFFFFFFFFFF MUL NOT AND SWAP1 DUP4 PUSH20 0xFFFFFFFFFFFFFFFFFFFFFFFFFFFFFFFFFFFFFFFF AND MUL OR SWAP1 SSTORE POP SWAP2 PUSH1 0x20 ADD SWAP2 SWAP1 PUSH1 0x1 ADD SWAP1 PUSH2 0x55A JUMP JUMPDEST JUMPDEST POP SWAP1 POP PUSH2 0x5BF SWAP2 SWAP1 PUSH2 0x5C3 JUMP JUMPDEST POP SWAP1 JUMP JUMPDEST JUMPDEST DUP1 DUP3 GT ISZERO PUSH2 0x5DA JUMPI PUSH0 DUP2 PUSH0 SWAP1 SSTORE POP PUSH1 0x1 ADD PUSH2 0x5C4 JUMP JUMPDEST POP SWAP1 JUMP JUMPDEST PUSH0 DUP2 SWAP1 POP SWAP2 SWAP1 POP JUMP JUMPDEST PUSH2 0x5F0 DUP2 PUSH2 0x5DE JUMP JUMPDEST DUP3 MSTORE POP POP JUMP JUMPDEST PUSH0 PUSH1 0x20 DUP3 ADD SWAP1 POP PUSH2 0x609 PUSH0 DUP4 ADD DUP5 PUSH2 0x5E7 JUMP JUMPDEST SWAP3 SWAP2 POP POP JUMP JUMPDEST PUSH0 DUP1 REVERT JUMPDEST PUSH0 PUSH20 0xFFFFFFFFFFFFFFFFFFFFFFFFFFFFFFFFFFFFFFFF DUP3 AND SWAP1 POP SWAP2 SWAP1 POP JUMP JUMPDEST PUSH0 PUSH2 0x63C DUP3 PUSH2 0x613 JUMP JUMPDEST SWAP1 POP SWAP2 SWAP1 POP JUMP JUMPDEST PUSH2 0x64C DUP2 PUSH2 0x632 JUMP JUMPDEST DUP2 EQ PUSH2 0x656 JUMPI PUSH0 DUP1 REVERT JUMPDEST POP JUMP JUMPDEST PUSH0 DUP2 CALLDATALOAD SWAP1 POP PUSH2 0x667 DUP2 PUSH2 0x643 JUMP JUMPDEST SWAP3 SWAP2 POP POP JUMP JUMPDEST PUSH0 PUSH1 0x20 DUP3 DUP5 SUB SLT ISZERO PUSH2 0x682 JUMPI PUSH2 0x681 PUSH2 0x60F JUMP JUMPDEST JUMPDEST PUSH0 PUSH2 0x68F DUP5 DUP3 DUP6 ADD PUSH2 0x659 JUMP JUMPDEST SWAP2 POP POP SWAP3 SWAP2 POP POP JUMP JUMPDEST PUSH2 0x6A1 DUP2 PUSH2 0x632 JUMP JUMPDEST DUP3 MSTORE POP POP JUMP JUMPDEST PUSH0 PUSH1 0x20 DUP3 ADD SWAP1 POP PUSH2 0x6BA PUSH0 DUP4 ADD DUP5 PUSH2 0x698 JUMP JUMPDEST SWAP3 SWAP2 POP POP JUMP JUMPDEST PUSH2 0x6C9 DUP2 PUSH2 0x5DE JUMP JUMPDEST DUP3 MSTORE POP POP JUMP JUMPDEST PUSH0 PUSH1 0x20 DUP3 ADD SWAP1 POP PUSH2 0x6E2 PUSH0 DUP4 ADD DUP5 PUSH2 0x6C0 JUMP JUMPDEST SWAP3 SWAP2 POP POP JUMP JUMPDEST PUSH2 0x6F1 DUP2 PUSH2 0x5DE JUMP JUMPDEST DUP2 EQ PUSH2 0x6FB JUMPI PUSH0 DUP1 REVERT JUMPDEST POP JUMP JUMPDEST PUSH0 DUP2 MLOAD SWAP1 POP PUSH2 0x70C DUP2 PUSH2 0x6E8 JUMP JUMPDEST SWAP3 SWAP2 POP POP JUMP JUMPDEST PUSH0 PUSH1 0x20 DUP3 DUP5 SUB SLT ISZERO PUSH2 0x727 JUMPI PUSH2 0x726 PUSH2 0x60F JUMP JUMPDEST JUMPDEST PUSH0 PUSH2 0x734 DUP5 DUP3 DUP6 ADD PUSH2 0x6FE JUMP JUMPDEST SWAP2 POP POP SWAP3 SWAP2 POP POP JUMP JUMPDEST PUSH0 DUP3 DUP3 MSTORE PUSH1 0x20 DUP3 ADD SWAP1 POP SWAP3 SWAP2 POP POP JUMP JUMPDEST PUSH32 0x4574682073656E74206973206E6F7420656E6F75676800000000000000000000 PUSH0 DUP3 ADD MSTORE POP JUMP JUMPDEST PUSH0 PUSH2 0x781 PUSH1 0x16 DUP4 PUSH2 0x73D JUMP JUMPDEST SWAP2 POP PUSH2 0x78C DUP3 PUSH2 0x74D JUMP JUMPDEST PUSH1 0x20 DUP3 ADD SWAP1 POP SWAP2 SWAP1 POP JUMP JUMPDEST PUSH0 PUSH1 0x20 DUP3 ADD SWAP1 POP DUP2 DUP2 SUB PUSH0 DUP4 ADD MSTORE PUSH2 0x7AE DUP2 PUSH2 0x775 JUMP JUMPDEST SWAP1 POP SWAP2 SWAP1 POP JUMP JUMPDEST PUSH32 0x4E487B7100000000000000000000000000000000000000000000000000000000 PUSH0 MSTORE PUSH1 0x11 PUSH1 0x4 MSTORE PUSH1 0x24 PUSH0 REVERT JUMPDEST PUSH0 PUSH2 0x7EC DUP3 PUSH2 0x5DE JUMP JUMPDEST SWAP2 POP PUSH2 0x7F7 DUP4 PUSH2 0x5DE JUMP JUMPDEST SWAP3 POP DUP3 DUP3 ADD SWAP1 POP DUP1 DUP3 GT ISZERO PUSH2 0x80F JUMPI PUSH2 0x80E PUSH2 0x7B5 JUMP JUMPDEST JUMPDEST SWAP3 SWAP2 POP POP JUMP JUMPDEST PUSH32 0x596F75206D75737420626520746865206F776E6572206F662074686520636F6E PUSH0 DUP3 ADD MSTORE PUSH32 0x747261637420746F20706572666F726D207468697320616374696F6E21212100 PUSH1 0x20 DUP3 ADD MSTORE POP JUMP JUMPDEST PUSH0 PUSH2 0x86F PUSH1 0x3F DUP4 PUSH2 0x73D JUMP JUMPDEST SWAP2 POP PUSH2 0x87A DUP3 PUSH2 0x815 JUMP JUMPDEST PUSH1 0x40 DUP3 ADD SWAP1 POP SWAP2 SWAP1 POP JUMP JUMPDEST PUSH0 PUSH1 0x20 DUP3 ADD SWAP1 POP DUP2 DUP2 SUB PUSH0 DUP4 ADD MSTORE PUSH2 0x89C DUP2 PUSH2 0x863 JUMP JUMPDEST SWAP1 POP SWAP2 SWAP1 POP JUMP JUMPDEST PUSH32 0x4E487B7100000000000000000000000000000000000000000000000000000000 PUSH0 MSTORE PUSH1 0x32 PUSH1 0x4 MSTORE PUSH1 0x24 PUSH0 REVERT JUMPDEST PUSH32 0x4E487B7100000000000000000000000000000000000000000000000000000000 PUSH0 MSTORE PUSH1 0x41 PUSH1 0x4 MSTORE PUSH1 0x24 PUSH0 REVERT JUMPDEST PUSH0 DUP2 SWAP1 POP SWAP3 SWAP2 POP POP JUMP JUMPDEST POP JUMP JUMPDEST PUSH0 PUSH2 0x915 PUSH0 DUP4 PUSH2 0x8FD JUMP JUMPDEST SWAP2 POP PUSH2 0x920 DUP3 PUSH2 0x907 JUMP JUMPDEST PUSH0 DUP3 ADD SWAP1 POP SWAP2 SWAP1 POP JUMP JUMPDEST PUSH0 PUSH2 0x934 DUP3 PUSH2 0x90A JUMP JUMPDEST SWAP2 POP DUP2 SWAP1 POP SWAP2 SWAP1 POP JUMP JUMPDEST PUSH32 0x596F752063616E27742077697468647261772061742074686973206D6F6D656E PUSH0 DUP3 ADD MSTORE PUSH32 0x7400000000000000000000000000000000000000000000000000000000000000 PUSH1 0x20 DUP3 ADD MSTORE POP JUMP JUMPDEST PUSH0 PUSH2 0x998 PUSH1 0x21 DUP4 PUSH2 0x73D JUMP JUMPDEST SWAP2 POP PUSH2 0x9A3 DUP3 PUSH2 0x93E JUMP JUMPDEST PUSH1 0x40 DUP3 ADD SWAP1 POP SWAP2 SWAP1 POP JUMP JUMPDEST PUSH0 PUSH1 0x20 DUP3 ADD SWAP1 POP DUP2 DUP2 SUB PUSH0 DUP4 ADD MSTORE PUSH2 0x9C5 DUP2 PUSH2 0x98C JUMP JUMPDEST SWAP1 POP SWAP2 SWAP1 POP JUMP INVALID LOG2 PUSH5 0x6970667358 0x22 SLT KECCAK256 0xEB 0xA9 0xCE STATICCALL SWAP3 SWAP14 0xBF 0xE7 SWAP1 0xCA 0xB1 0x27 DUP4 0xB1 CALLDATALOAD DIV DUP14 0xCC 0xFB PUSH12 0xF21A8C1AB2E441381D88E321 PUSH5 0x736F6C6343 STOP ADDMOD BYTE STOP CALLER "
		},
		"gasEstimates": {
			"creation": {
				"codeDepositCost": "512400",
				"executionCost": "infinite",
				"totalCost": "infinite"
			},
			"external": {
				"": "infinite",
				"MINIMUN_USD()": "303",
				"addressToAmountFunded(address)": "2824",
				"fund()": "infinite",
				"i_owner()": "infinite",
				"withdraw()": "infinite"
			}
		},
		"methodIdentifiers": {
			"MINIMUN_USD()": "2100f479",
			"addressToAmountFunded(address)": "3e47d6f3",
			"fund()": "b60d4288",
			"i_owner()": "dba6335f",
			"withdraw()": "3ccfd60b"
		}
	},
	"abi": [
		{
			"inputs": [],
			"stateMutability": "nonpayable",
			"type": "constructor"
		},
		{
			"stateMutability": "payable",
			"type": "fallback"
		},
		{
			"inputs": [],
			"name": "MINIMUN_USD",
			"outputs": [
				{
					"internalType": "uint256",
					"name": "",
					"type": "uint256"
				}
			],
			"stateMutability": "view",
			"type": "function"
		},
		{
			"inputs": [
				{
					"internalType": "address",
					"name": "funder",
					"type": "address"
				}
			],
			"name": "addressToAmountFunded",
			"outputs": [
				{
					"internalType": "uint256",
					"name": "amountFunded",
					"type": "uint256"
				}
			],
			"stateMutability": "view",
			"type": "function"
		},
		{
			"inputs": [],
			"name": "fund",
			"outputs": [],
			"stateMutability": "payable",
			"type": "function"
		},
		{
			"inputs": [],
			"name": "i_owner",
			"outputs": [
				{
					"internalType": "address",
					"name": "",
					"type": "address"
				}
			],
			"stateMutability": "view",
			"type": "function"
		},
		{
			"inputs": [],
			"name": "withdraw",
			"outputs": [],
			"stateMutability": "nonpayable",
			"type": "function"
		},
		{
			"stateMutability": "payable",
			"type": "receive"
		}
	]
}